:100000000C943A010C9459010C9459010C94590127
:100010000C9459010C9459010C9459010C945901F8
:100020000C9459010C9459010C9459010C945901E8
:100030000C9459010C9459010C9459010C945901D8
:100040000C9459010C9459010C9459010C945901C8
:100050000C9459010C9459010C9459010C945901B8
:100060000C9459010C9459010C9459010C945901A8
:100070000C9459010C9459010C9459010C94590198
:100080000C9459010C9459010C9459010C94590188
:100090000C9459010C945901000000000000005F0D
:1000A00000000003000300143E143E14242A7F2A9B
:1000B000124333086661364955225000050300009B
:1000C000001C2241000041221C0014083E081408B4
:1000D000083E0808005030000008080808080060C2
:1000E00060000020100804023E5149453E00040211
:1000F0007F00426151494622414949361814127F16
:100100001027454545393E494949320101710907E2
:100110003649494936264949493E003636000000ED
:10012000563600000814224100141414141400411F
:1001300022140802015109063E4159555E7E090903
:10014000097E7F494949363E414141227F41414133
:100150003E7F494949417F090909013E4141493AE8
:100160007F0808087F00417F4100304040403F7FCA
:10017000081422417F404040407F020C027F7F02F2
:1001800004087F3E4141413E7F090909061E2121A5
:10019000215E7F09090976264949493201017F011B
:1001A000013F4040403F1F2040201F7F2010207F04
:1001B00041221C224107087008076151494543004C
:1001C0007F41000002040810200000417F0004026B
:1001D0000102044040404040000102040020545409
:1001E00054787F4444443838444444443844444474
:1001F0007F385454541804047E0505085454543C64
:100200007F0804047800447D40002040443D007F86
:100210001028440000417F40007C047804787C086A
:1002200004047838444444387C1414140808141422
:10023000147C007C080404485454542004043F44B3
:10024000443C4040207C1C2040201C3C4030403C32
:1002500044281028440C5050503C4464544C4400F2
:100260000836414100007F0000414136080002018C
:100270000204020011241FBECFEFD0E2DEBFCDBFCB
:1002800016E0A0E0B1E0E4E3F5E300E00BBF02C05C
:1002900007900D92A63BB107D9F718E0A6EBB6E0A0
:1002A00001C01D92A530B107E1F70E942A140C94F9
:1002B000981A0C9400006F98779A87B1837C87B95D
:1002C00088B18C6388B9EAE6F0E080818568808334
:1002D0000895679903C021E030E016C0329903C049
:1002E00022E030E011C0339903C023E030E00CC0BD
:1002F000349903C024E030E007C0359B03C026E0FA
:1003000030E002C025E030E0C901089593E8909301
:10031000B00091E09093B1008093B30008959C01E8
:100320009093BB068093BA0686E390E080930040EA
:100330002115310589F480EF90E09093B706809302
:10034000B60680E491E09093B9068093B80688E4FD
:1003500090E0809300413BC02130310589F480E476
:1003600091E09093B7068093B60680EF90E090936B
:10037000B9068093B80688EE90E08093004127C0CC
:100380002230310589F480EF90E09093B706809396
:10039000B60680E491E09093B9068093B80688E8A9
:1003A00090E08093004113C02330310581F480E454
:1003B00091E09093B7068093B60680EF90E090931B
:1003C000B9068093B80688E290E0809300418AE203
:1003D00090E08093004020E030E030930041209393
:1003E00000418091B6069091B70601979093004125
:1003F000809300418BE290E0809300403093004175
:10040000209300418091B8069091B906019790938E
:1004100000418093004108951F93682F873718F09B
:1004200010E066E711C0883010F468E00CC08D332E
:1004300010F010E009C08F3110F011E005C08031DC
:1004400010F012E001C013E081EB90E080930040D7
:100450001093004170E0882777FD8095982F0E94C7
:10046000A6179B01AC0160E070E080EF94E40E946D
:10047000CA160E94F41470E002C0759567951A952B
:10048000E2F7609300411F9108950F931F93DF934C
:10049000CF93CDB7DEB728970FB6F894DEBF0FBE67
:1004A000CDBF29833A834B835C836D837E838F83A7
:1004B000988769817A812B813C81ED81FE814F8112
:1004C00058858AE290E080930040709300416093E9
:1004D000004130930041209300418BE290E08093F3
:1004E0000040F0930041E09300415093004140935D
:1004F00000418CE290E0809300402F5F3F4F261B2D
:10050000370B4F5F5F4F4E1B5F0B24173507C8F447
:10051000842F877090E0829FB001839F700D929F1F
:10052000700D1124F3E056954795FA95E1F7842F65
:1005300090E0829FF001839FF00D929FF00D1124B7
:1005400018C0822F877090E0849FB001859F700D46
:10055000949F700D1124E3E036952795EA95E1F715
:10056000822F90E0849FF001859FF00D949FF00D05
:100570001124862F877005C010930041009300411D
:1005800081508823C9F7CB0123E0969587952A955A
:10059000E1F78E0F9F1F21C010930041009300418F
:1005A00010930041009300411093004100930041DB
:1005B00010930041009300411093004100930041CB
:1005C00010930041009300411093004100930041BB
:1005D000109300410093004101970097E9F6289697
:1005E0000FB6F894DEBF0FBECDBFCF91DF911F9144
:1005F0000F9108952F923F924F925F926F927F9248
:100600008F929F92AF92BF92CF92DF92EF92FF9222
:100610000F931F93DF93CF93CDB7DEB76A970FB6D3
:10062000F894DEBF0FBECDBF9C8B8B8B7E8B6D8B0A
:100630001A01388F2F8B840F951F9A8B898B4B88CB
:100640005C88441A550A3C018824992461C08B892E
:100650009C898215930548F420E030E0A1E0B0E0E9
:10066000E0E0F0E0AA24BB2408C0D20111962D8955
:100670003E8928193909F2015901E090C406F09029
:10068000C50689899A89E816F90628F4C701E98E12
:10069000FA8E67010BC063010894C108D1088D89E7
:1006A0009E89880D991D898F9A8F730198878F83F2
:1006B000622F3E832D834A2FBC83AB832E2FFA8378
:1006C000E9833A815C817E8198850F89188D0E942B
:1006D0004502998D9F878A8D888B4C2DDC86CB8631
:1006E0002E2DFA86E9866A2DBE86AD863A855C8512
:1006F0007E85892F9A8D0F89188D0E944502089456
:10070000811C911C0894610871080894411C511CBB
:100710008214930408F49BCF6A960FB6F894DEBF58
:100720000FBECDBFCF91DF911F910F91FF90EF9042
:10073000DF90CF90BF90AF909F908F907F906F9001
:100740005F904F903F902F900895EF92FF920F93FC
:100750001F93DF93CF93CDB7DEB728970FB6F894EA
:10076000DEBF0FBECDBF29833A834B835C836D838D
:100770007E838F83988729813A81AB81BC81ED800C
:10078000FE806F8178858AE290E08093004030930C
:10079000004120930041B0930041A09300418BE2BF
:1007A00090E080930040F0920041E092004170930D
:1007B0000041609300418CE290E0809300400FC0C4
:1007C000F801819191918F019093004180930041B4
:1007D0004F5F5F4F6417750798F72F5F3F4FA21762
:1007E000B30710F0A701F6CF28960FB6F894DEBF36
:1007F0000FBECDBFCF91DF911F910F91FF90EF9072
:1008000008950F931F93DF93CF93CDB7DEB728974B
:100810000FB6F894DEBF0FBECDBF1092BD0610928A
:10082000BC061092BF061092BE062091B60630910B
:10083000B706215030408091B8069091B9060197D3
:100840001A821982422F3C832B831E821D82988735
:100850008F830091C2061091C30629813A815C8181
:100860006D817E8198850E94450228960FB6F89486
:10087000DEBF0FBECDBFCF91DF911F910F910895C5
:10088000CF92DF92EF92FF920F931F93CF93DF935C
:100890004091BC065091BD068A010C5F1F4FA0918C
:1008A000BE06B091BF06282F332727FD309591E073
:1008B0002030390709F48BC080528F3508F087C08B
:1008C000ED012796F901EE0FFF1FEE0FFF1FE20F5C
:1008D000F31FE850F0408BE290E080930040B0932B
:1008E0000041A0930041D0930041C09300419A0180
:1008F0009AE2C92ED12C8CE2E82EF12C29C0C092AC
:1009000000403093004120930041309300412093F8
:100910000041E09200407491AD0161E013C0862F68
:10092000872329F08091C0069091C10604C0809170
:10093000C2069091C30690930041809300414F5F9F
:100940005F4F660FC417D50750F731962F5F3F4FA3
:1009500002171307A0F68AE290E0809300403093DC
:1009600000412093004130930041209300418CE2EC
:1009700090E0809300409D010AC08091C206909152
:10098000C30690930041809300412F5F3F4FC217F1
:10099000D30798F78091BC069091BD060696909378
:1009A000BD068093BC062091B6063091B70682172B
:1009B000930768F01092BD061092BC068091BE06A7
:1009C0009091BF0608969093BF068093BE06DF9174
:1009D000CF911F910F91FF90EF90DF90CF900895EE
:1009E0001F93CF93DF93EC0110E003C00E944004FB
:1009F0001F5FFE01E10FF11D80818823B9F7DF91B0
:100A0000CF911F910895FF920F931F93CF93DF9380
:100A1000EC01462FE72F87E2C031D80728F082E0AB
:100A200091E00E94F0042BC0CE0100E010E06AE0EB
:100A300070E00E944D1ACB010F5F1F4F61157105C9
:100A4000B1F7842F9E2F9C01F901FC2E4D2F9801A8
:100A500012C08F2D942F6AE070E00E944D1A805DC5
:100A600084838F2D942F6AE070E00E944D1AF62E39
:100A7000472F2150304031972115310551F7DF9133
:100A8000CF911F910F91FF9008951F93CF93DF9304
:100A9000EC017093BD066093BC065093BF06409373
:100AA000BE0610E003C00E9440041F5FFE01E10F7C
:100AB000F11D80818823B9F7DF91CF911F910895AF
:100AC0000F931F93DF93CF93CDB7DEB760970FB629
:100AD000F894DEBF0FBECDBF8B0120912001309175
:100AE0002101409122015091230129833A834B83B4
:100AF0005C83BE016F5F7F4F0E940305DE01159688
:100B0000E5E2F1E089E001900D928150E1F7FE010C
:100B10003E9683E0DF011D928A95E9F789818D87F2
:100B20008A818E878B818F878C81888B013011051C
:100B300059F46091C4067091C5066D5F7F4FCE0178
:100B4000059640E150E00DC00230110561F460915E
:100B5000C4067091C5066D5F7F4FCE01059648E3D0
:100B600050E00E94450560960FB6F894DEBF0FBEB8
:100B7000CDBFCF91DF911F910F9108950F931F93D8
:100B8000DF93CF93CDB7DEB72F970FB6F894DEBFC4
:100B90000FBECDBF8B0120912001309121014091EA
:100BA00022015091230129833A834B835C83BE0148
:100BB0006F5F7F4F0E940305DE011596E1E3F1E0D0
:100BC00088E001900D928150E1F7FE013D9683E0AF
:100BD000DF011D928A95E9F789818C878A818D874B
:100BE0008B818E878C818F870130110559F460913C
:100BF000C4067091C5066D5F7F4FCE01059648E033
:100C000050E00DC00230110561F46091C40670918E
:100C1000C5066D5F7F4FCE01059640E350E00E9410
:100C200045052F960FB6F894DEBF0FBECDBFCF910E
:100C3000DF911F910F9108950F931F93DF93CF932F
:100C4000CDB7DEB72F970FB6F894DEBF0FBECDBF7E
:100C50008B0120912001309121014091220150917E
:100C6000230129833A834B835C83BE016F5F7F4FEF
:100C70000E940305DE011596ECE3F1E088E00190A7
:100C80000D928150E1F7FE013D9683E0DF011D9258
:100C90008A95E9F789818C878A818D878B818E87F8
:100CA0008C818F870130110559F46091C4067091D1
:100CB000C5066D5F7F4FCE01059648E150E00DC03F
:100CC0000230110561F46091C4067091C5066D5F34
:100CD0007F4FCE01059640E450E00E9445052F96D7
:100CE0000FB6F894DEBF0FBECDBFCF91DF911F913D
:100CF0000F9108950F931F93DF93CF93CDB7DEB776
:100D00002A970FB6F894DEBF0FBECDBFDE01119655
:100D1000E7E4F1E08AE001900D928150E1F7609103
:100D2000C4067091C5066D5F7F4F8E010F5F1F4F28
:100D3000C80140E050E00E94450582E38887609149
:100D4000C4067091C5066D5F7F4FC80148E250E050
:100D50000E9445052A960FB6F894DEBF0FBECDBFA0
:100D6000CF91DF911F910F91089586E080937500D8
:100D700080E8809374003F9A249A80ED97E0019771
:100D8000F1F7479880E49CE90197F1F7479A80EBE7
:100D900094E028EC30E0F9013197F1F70197D9F7A9
:100DA00088E290E08093004081E190E080930040F1
:100DB00088E592E028EC30E0F9013197F1F70197EE
:100DC000D9F741E050E08BEC90E0809300404093F5
:100DD000004180EC90E08093004088E096E29093A0
:100DE00000418093004120E130E081EC90E080936D
:100DF00000402093004185EC90E0809300408EE31A
:100E000095E3909300418093004125EB30E087EC1F
:100E100090E0809300402093004186EF90E0809323
:100E200000404093004180E090E090930041809327
:100E3000004125E530E08AE390E080930040209374
:100E4000004181E090E00E948F010E940104109215
:100E5000BD061092BC061092BF061092BE068FEF20
:100E60009FEF9093C3068093C2061092C106109222
:100E7000C00689E290E08093004084EF91E028EC86
:100E800030E0F9013197F1F70197D9F780E090E070
:100E900025E330E0209300408093004180916A0078
:100EA000806280936A002C9A0E9401042091B60609
:100EB0003091B7068091B8069091B9062817390786
:100EC00038F4215030403093C5062093C40605C045
:100ED00001979093C5068093C4068091C4069091B3
:100EE000C50669E070E00E944D1ACB017093C706F9
:100EF0006093C6069B0173E0220F331F7A95E1F7DA
:100F0000280F391F3093C5062093C4060E947A0625
:100F100008950F931F93DF93CF93CDB7DEB7289734
:100F20000FB6F894DEBF0FBECDBF1A821982809132
:100F3000B6069091B7060197482F9C838B831E823B
:100F40001D828091B8069091B906019798878F838A
:100F50000091C2061091C30629813A815C816D819E
:100F60007E8198850E9445026091B6067091B70611
:100F7000769567956B5470404091B8065091B906CC
:100F8000569547954F53504081E591E00E944505A5
:100F90006091B6067091B706769567956B54704070
:100FA0004091B8065091B906569547954653504022
:100FB0008AE691E00E9445056091B6067091B706F9
:100FC000769567956B5470404091B8065091B9067C
:100FD000569547954D52504083E891E00E94450553
:100FE0006091B6067091B706769567956B54704020
:100FF0004091B8065091B9065695479544525040D5
:101000008EE991E00E9445056091B6067091B706A1
:10101000769567956B5470404091B8065091B9062B
:10102000569547954B5150408AEB91E00E944505FB
:101030006091B6067091B706769567956B547040CF
:101040004091B8065091B906569547954251504087
:1010500087ED91E00E9445056091B6067091B70654
:10106000769567956B5470404091B8065091B906DB
:10107000569547954950504083EF91E00E944505B1
:101080006091B6067091B706769567956B5470407F
:101090004091B8065091B906569547958FE092E079
:1010A0000E9445056091B6067091B70676956795E2
:1010B0006B5470404091B8065091B90656954795CB
:1010C000475F5F4F8BE292E00E9445056091B60654
:1010D0007091B706769567956B5470404091B8064D
:1010E0005091B906569547954E5E5F4F87E492E062
:1010F0000E9445056091B6067091B7067695679592
:101100006B5470404091B8065091B906569547957A
:10111000455E5F4F83E692E00E9445056091B6060A
:101120007091B706769567956B5470404091B806FC
:101130005091B906569547954C5D5F4F8EE792E00A
:101140000E9445056091B6067091B7067695679541
:101150006B5470404091B8065091B906569547952A
:10116000435D5F4F8AE992E00E9445056091B606B3
:101170007091B706769567956B5470404091B806AC
:101180005091B906569547954A5C5F4F86EB92E0C1
:101190000E9445056091B6067091B70676956795F1
:1011A0006B5470404091B8065091B90656954795DA
:1011B000415C5F4F8DEC92E00E9445056091B60660
:1011C0007091B706769567956B5470404091B8065C
:1011D0005091B906569547954F5A5F4F88EE92E069
:1011E0000E94450528960FB6F894DEBF0FBECDBF0E
:1011F000CF91DF911F910F910895EF92FF920F937E
:101200001F93DF93CF93CDB7DEB728970FB6F8942F
:10121000DEBF0FBECDBF7C011A8219828091B60657
:101220009091B7060197482F9C838B831E821D8265
:101230008091B8069091B906019798878F830091A5
:10124000C2061091C30629813A815C816D817E813D
:1012500098850E94450281E0E816F10409F089C0F2
:101260006091B6067091B7067695679562577040A3
:101270004091B8065091B906569547954D52504049
:1012800086E093E00E9445056091B6067091B7062E
:1012900076956795625770404091B8065091B906AF
:1012A00056954795445250408DE293E00E94450583
:1012B0006091B6067091B706769567956257704053
:1012C0004091B8065091B906569547954B515040FC
:1012D00084E593E00E9445056091B6067091B706DB
:1012E00076956795625770404091B8065091B9065F
:1012F00056954795425150408BE793E00E94450533
:101300006091B6067091B706769567956257704002
:101310004091B8065091B9065695479549505040AE
:1013200082EA93E00E9445056091B6067091B70687
:1013300076956795625770404091B8065091B9060E
:101340005695479589EC93E00E9445056091B60655
:101350007091B70676956795625770404091B806D0
:101360005091B90656954795475F5F4F80EF93E0E0
:101370008DC082E0E816F10409F0C6C06091B6069F
:101380007091B70676956795625770404091B806A0
:101390005091B906569547954D52504086E093E0DE
:1013A0000E9445056091B6067091B70676956795DF
:1013B000625770404091B8065091B90656954795CE
:1013C000445250408CE894E00E9445056091B60676
:1013D0007091B70676956795625770404091B80650
:1013E0005091B906569547954B51504086EB94E085
:1013F0000E9445056091B6067091B706769567958F
:10140000625770404091B8065091B906569547957D
:10141000425150408FED94E00E9445056091B60620
:101420007091B70676956795625770404091B806FF
:101430005091B906569547954950504089E095E03E
:101440000E9445056091B6067091B706769567953E
:10145000625770404091B8065091B906569547952D
:1014600083E395E00E9445056091B6067091B7064A
:1014700076956795625770404091B8065091B906CD
:1014800056954795475F5F4F8DE595E00E9445056E
:101490006091B6067091B706769567956257704071
:1014A0004091B8065091B906569547954E5E5F4FEC
:1014B00087E194E00E9445056091B6067091B706F9
:1014C00076956795625770404091B8065091B9067D
:1014D00056954795455E5F4F8EE394E00E94450523
:1014E0006091B6067091B706769567956257704021
:1014F0004091B8065091B906569547954A5C5F4FA2
:1015000085E694E00E94450528960FB6F894DEBF64
:101510000FBECDBFCF91DF911F910F91FF90EF9044
:101520000895AF92BF92CF92DF92EF92FF920F9306
:101530001F93DF93CF93CDB7DEB760970FB6F894C4
:10154000DEBF0FBECDBF21E030E03E832D83809112
:10155000C4069091C50698878F833A8729879C8710
:101560008B87AA24BB248091C6069091C706A89EAB
:101570007001A99EF00CB89EF00C11242E2DFA8259
:10158000E98267010894C11CD11C4C2DDC82CB82FE
:101590000091C0061091C1063A815C816D817E8107
:1015A0008F8198850E9445026E2DFE86ED86D88A31
:1015B000CF860091C0061091C10629853A854B85DA
:1015C0005C857E858C2D98890E9445020894A11C1B
:1015D000B11C8AE0A816B10431F660960FB6F894F3
:1015E000DEBF0FBECDBFCF91DF911F910F91FF9056
:1015F000EF90DF90CF90BF90AF9008956F927F9261
:101600008F929F92AF92BF92CF92DF92EF92FF9212
:101610000F931F93DF93CF93CDB7DEB768970FB6C5
:10162000F894DEBF0FBECDBF7C013B016091C606C2
:101630007091C706E69EC001E79E900DF69E900D44
:1016400011248A30910518F4E0E0F0E002C0FC01BA
:101650003A974091C4065091C506669E9001679ED8
:10166000300D769E300D11242A30310518F460E0DB
:1016700070E003C0B9016A5070400091C206109139
:10168000C306265F3F4F4217530708F49A013C8375
:101690002B837A8369830A964817590708F4CA018D
:1016A00098878F836E2FFE83ED8329813A814B814A
:1016B0005C817E8198850E9445028091C60690914A
:1016C000C706E89E6001E99ED00CF89ED00C11245C
:1016D0002AE0C216D10418F48824992406C026EF03
:1016E000822E2FEF922E8C0C9D1CA090C406B090E1
:1016F000C506689E7001699EF00C789EF00C11245E
:101700008AE0E816F10418F460E070E003C0B70165
:101710006A5070400091C0061091C106DE8ACD8AE1
:101720000894C11CD11CD88ECF8A0894C108D10856
:10173000C7010A96A816B90608F4C501482F9C8B64
:101740008B8B262F7A8B698B3A895C896D897E8990
:101750008F89988D0E9445020091C0061091C106A4
:10176000FA86E9860894E11CF11CFC86EB86C6012A
:101770000A96A816B90608F4C501988B8F87682DBC
:101780009E868D8629853A854B855C857E859889E0
:101790000E94450268960FB6F894DEBF0FBECDBF1B
:1017A000CF91DF911F910F91FF90EF90DF90CF903D
:1017B000BF90AF909F908F907F906F900895EF9221
:1017C000FF920F931F93DF93CF93CDB7DEB7289788
:1017D0000FB6F894DEBF0FBECDBF8B017A016091CA
:1017E000C6067091C706869FF001879FF00D969FF1
:1017F000F00D1124E217F30718F4A0E0B0E003C0E5
:10180000DF01A21BB30B4091C4065091C506069F91
:10181000C001079F900D169F900D1124821793070A
:1018200018F460E070E003C0BC01621B730B820F10
:10183000931F4817590708F4CA019C838B837A8346
:101840006983C9018E0F9F1F4817590708F4CA0101
:1018500098878F836A2FBE83AD8329813A814B811C
:101860005C817E81988587010E94450228960FB68B
:10187000F894DEBF0FBECDBFCF91DF911F910F91C6
:10188000FF90EF9008953F924F925F926F927F92F8
:101890008F929F92AF92BF92CF92DF92EF92FF9280
:1018A0000F931F93DF93CF93CDB7DEB7C459D140C9
:1018B0000FB6F894DEBF0FBECDBFAC0180E090E064
:1018C0008E010F5F1F4F2FEF3FEFDE01A553BF4F7C
:1018D000F801E80FF91F31832083FD01E80FF91F9C
:1018E0003183208302968A3C910591F749835A837C
:1018F00011967C936E93CA01FA0133E0EE0FFF1F3D
:101900003A95E1F7880F991FE80FF91FE60FF71FC7
:10191000E853F94F81E0808358016D01B1E0EB2E6F
:10192000F12C88249924332433942801360146C0AD
:10193000F801E256FA4F40815181F5018081918191
:10194000480F591FF60180819181F801EA55FA4F3D
:101950000190F081E02D4A305105F8F4BF01680F85
:10196000791F77FD1AC06A307105BCF42AC0F901ED
:10197000E853F94F8081882381F43082F701EE0F1C
:10198000FF1FD201AE0FBF1F4D935C93E60DF71DF5
:10199000718360830894E11CF11C0E5F1F4F0830B7
:1019A000110531F60894811C911C82E090E0A80E8C
:1019B000B91EC80ED91E8E149F04DCF400E010E09E
:1019C000B7CF9A01220F331FCA01E3E0880F991F96
:1019D000EA95E1F7280F391F260F371FF901EE0F9F
:1019E000FF1FE55CF84F80819181892B09F4BFCFFF
:1019F000D4CFCC56DE4F0FB6F894DEBF0FBECDBFAE
:101A0000CF91DF911F910F91FF90EF90DF90CF90DA
:101A1000BF90AF909F908F907F906F905F904F900E
:101A20003F900895EF92FF920F931F93CF93DF9310
:101A30008C017B01FC01EE0FFF1FA3E0880F991FB3
:101A4000AA95E1F7E80FF91FE60FF71FE853F94FE2
:101A500081E08083C0E0D0E0FE01E256FA4F2081B1
:101A60003181200F311FFE01EA55FA4F60817181EB
:101A70002A30310580F46E0D7F1D77FD0CC06A3071
:101A800071054CF414C0A853B94F8C91882319F4F4
:101A9000C9010E94430C2296C830D105E9F681E0C5
:101AA000DF91CF911F910F91FF90EF900895D90191
:101AB000AA0FBB1FC90153E0880F991F5A95E1F780
:101AC000A80FB91FA60FB71FFD01EE0FFF1FE55CA2
:101AD000F84F80819181892BB1F2DDCFEF92FF9297
:101AE0000F931F93CF93DF938C017B01FC01EE0FCB
:101AF000FF1F63E0880F991F6A95E1F7E80FF91F50
:101B0000EE0DFF1DE853F94F81E08083C0E0D0E087
:101B1000FE01E256FA4F20813181200F311FFE0174
:101B2000EA55FA4F608171812A30310580F46E0DDB
:101B30007F1D77FD0CC06A3071054CF414C0A853AA
:101B4000B94F8C91882319F4C9010E94430C229645
:101B5000C830D105E9F681E0DF91CF911F910F9157
:101B6000FF90EF900895D901AA0FBB1FC90143E070
:101B7000880F991F4A95E1F7A80FB91FA60FB71F45
:101B8000FD01EE0FFF1FE55CF84F80819181892BED
:101B9000B1F2DDCF20E030E044E150E00CC01D9216
:101BA0001192119201968A309105C9F72F5F3F4F2C
:101BB0002A303105C9F0D901AA0FBB1FC901E3E0E2
:101BC000880F991FEA95E1F7A80FB91FA853B94FDD
:101BD000249FF001259FF00D349FF00D1124E55C4A
:101BE000F84F80E090E0DBCF10922D0710922C0789
:101BF000109234071092330710923A071092390767
:101C0000109232071092310710922F0710922E0770
:101C100010920408109203081092360710923507AC
:101C200087E090E0909338078093370781E08093B6
:101C300030070895DC0140E050E0FA01E256FA4F27
:101C4000808191818A0F9B1FFA01EA55FA4F01901A
:101C5000F081E02D8A30910540F49B012E0F3F1F4B
:101C600037FD03C02A3031053CF04E5F5F4F4830EE
:101C7000510519F781E00895FC01EE0FFF1FEE0FEB
:101C8000FF1FEE0FFF1F880F991FE80FF91FE20FCC
:101C9000F31FEE0FFF1FE55CF84F80819181892BC8
:101CA00021F780E0089520E030E00AC0119201960B
:101CB0008A309105D9F72F5F3F4F2A30310581F0E7
:101CC000F901EE0FFF1FC90143E0880F991F4A95E4
:101CD000E1F7E80FF91FE853F94F80E090E0E6CF15
:101CE00008950A9740F477FD06C080E06A307105D8
:101CF0001CF481E0089580E00895CF92DF92EF9286
:101D0000FF920F931F93CF93DF938C017B01880F7A
:101D1000991F980143E0220F331F4A95E1F7820F84
:101D2000931F860F971FFC01E853F94F21E0208392
:101D3000FC01EE0FFF1FE55CF84F80819181892B3C
:101D400099F1C0E0D0E06F01FE01E256FA4F208128
:101D50003181200F311FFE01EA55FA4F60817181F8
:101D60002A303105D8F46E0D7F1D77FD17C06A301B
:101D70007105A4F423C0AA0FBB1FA55CB84FED9159
:101D8000FC91D6018D919C91E817F90711F0EF2B8A
:101D900029F4C9010E947D0E882331F42296C830AF
:101DA000D10591F680E001C081E0DF91CF911F91D4
:101DB0000F91FF90EF90DF90CF900895D901AA0F77
:101DC000BB1FC901E3E0880F991FEA95E1F7A80F4F
:101DD000B91FA60FB71FFD01E853F94F8081882373
:101DE00051F2DCCFCF92DF92EF92FF920F931F93CD
:101DF000CF93DF937C016B010E94530EF701EE0F2E
:101E0000FF1FC70123E0880F991F2A95E1F7E80F0C
:101E1000F91FEC0DFD1DEE0FFF1FE55CF84F019063
:101E2000F081E02DE130F10519F402E010E007C087
:101E3000329719F401E010E002C003E010E0C0E0C6
:101E4000D0E0FE01E256FA4F208131812E0D3F1D78
:101E5000FE01EA55FA4F608171812A303105C0F4E4
:101E60006C0D7D1D77FD14C06A3071058CF420C0A7
:101E7000AA0FBB1FA55CB84F8D919C91801791074D
:101E800039F4C9010E947D0E882311F481E007C056
:101E90002296C830D105A9F60E94530E80E0DF914A
:101EA000CF911F910F91FF90EF90DF90CF90089509
:101EB000D901AA0FBB1FC901E3E0880F991FEA955A
:101EC000E1F7A80FB91FA60FB71FFD01E853F94F9F
:101ED0008081882369F2DCCF0F931F93CF93DF9328
:101EE000EC018B0120912C0730912D076091330775
:101EF00070913407C901FC0143E0EE0FFF1F4A95C2
:101F0000E1F7880F991FE80FF91FE60FF71FEE0F93
:101F1000FF1FE55CF84F80819181019739F4C90179
:101F200040E058EF2AE030E00E94DF0B20912C07C0
:101F300030912D076091330770913407C901FC017E
:101F400053E0EE0FFF1F5A95E1F7880F991FE80F36
:101F5000F91FE60FF71FEE0FFF1FE55CF84F8081BA
:101F60009181029739F4C9014FE150E02AE030E055
:101F70000E94DF0B20912C0730912D0760913307D1
:101F800070913407C901FC01A3E0EE0FFF1FAA9571
:101F9000E1F7880F991FE80FF91FE60FF71FEE0F03
:101FA000FF1FE55CF84F80819181892B19F4C901ED
:101FB0000E94FE0ACE01B80140EE57E027E030E073
:101FC0000E94DF0BD0932D07C0932C07109334078A
:101FD00000933307DF91CF911F910F9108959C01DA
:101FE000AB0180912C0790912D0760913307709180
:101FF00034072436310511F4019704C0213031052E
:1020000009F401964436510519F46150704005C039
:102010004130510511F46F5F7F4F8A30910538F4DC
:1020200077FD05C06A30710514F40E946C0F0895A5
:10203000AF92BF92CF92DF92EF92FF920F931F93D6
:10204000CF93DF937C016B01FC01EE0FFF1FC701F3
:1020500003E0880F991F0A95E1F7E80FF91FE60FD3
:10206000F71FEE0FFF1FE55CF84FA080B1801182D3
:10207000108201E010E0C0E0D0E0FE01E256FA4F2D
:10208000208131812E0D3F1DFE01EA55FA4F6081FE
:1020900071812A30310568F46C0D7D1D77FD09C012
:1020A0006A30710534F419C0C9010E941810080F74
:1020B000191F2296C830D10501F7C701B6010E9449
:1020C000FE0AC801DF91CF911F910F91FF90EF9011
:1020D000DF90CF90BF90AF900895F901EE0FFF1FF2
:1020E000C901A3E0880F991FAA95E1F7E80FF91F2E
:1020F000E60FF71FEE0FFF1FE55CF84F808191811F
:102100008A159B05B1F6D0CFE1E6F0E080E8808348
:1021100010820E94B5060E945B0108958F929F92E3
:10212000AF92BF92CF92DF92EF92FF920F931F93E5
:10213000CF93DF930E94530EA0903107B0903207E7
:10214000C0903907D0903A07EE24FF2484E1882E0E
:10215000912C1FC0F80180819181019721F4C70162
:10216000BE010E94120D21960E5F1F4FCA30D1058D
:1021700089F70894E11CF11CFAE0EF16F10449F428
:1021800087E090E0C80ED91E40E050E064E170E0C6
:1021900023C0E89C8001E99C100DF89C100D1124CF
:1021A000055C184FC0E0D0E0D5CF8D919C91119780
:1021B000892B31F48081882319F40894C11CD11C27
:1021C0002F5F3F4F129631962A30310571F74F5FDE
:1021D0005F4F4A305105C9F0469FD001479FB00D6F
:1021E000569FB00D1124A55CB84FFA01EE0FFF1FEA
:1021F000CA0113E0880F991F1A95E1F7E80FF91F3C
:10220000E853F94F20E030E0D0CF0E94530EEE2487
:10221000FF2444E1842E912C1BC0F8018081918120
:10222000029721F4C701BE010E946E0D21960E5F38
:102230001F4FCA30D10589F70894E11CF11CFAE060
:10224000EF16F10429F440E050E064E170E023C0AF
:10225000E89C8001E99C100DF89C100D1124055C90
:10226000184FC0E0D0E0D9CF8D919C911197892B68
:1022700031F48081882319F40894A11CB11C2F5FCC
:102280003F4F129631962A30310571F74F5F5F4FFD
:102290004A305105C9F0469FD001479FB00D569F67
:1022A000B00D1124A55CB84FFA01EE0FFF1FCA0153
:1022B00023E0880F991F2A95E1F7E80FF91FE853EB
:1022C000F94F20E030E0D0CFB0922F07A0922E0738
:1022D000D0923807C0923707C50161E070E00E94D4
:1022E0001C06809137079091380762E070E00E94E9
:1022F0001C060E94530EDF91CF911F910F91FF900A
:10230000EF90DF90CF90BF90AF909F908F90089507
:102310008F929F92AF92BF92CF92DF92EF92FF92F5
:102320000F931F93CF93DF935C014B010E94530ED9
:10233000F501EE0FFF1FC501B3E0880F991FBA9595
:10234000E1F7E80FF91FE80DF91DEE0FFF1FE55C3F
:10235000F84F0190F081E02DE130F10521F472E0B9
:10236000C72ED12C09C0329721F461E0C62ED12CA2
:1023700003C053E0C52ED12CEE24FF24F701E25612
:10238000FA4FC081D181CA0DDB1DF701EA55FA4F22
:1023900060817181CA30D10508F08CC08401060FBC
:1023A000171F17FD87C00A3011050CF083C09AC0B3
:1023B000AA0FBB1FA55CB84F8D919C918C159D05F4
:1023C00009F078C0CE01B8010E947D0E882309F083
:1023D00071C0CE01B8010E941810AC01009709F439
:1023E00069C080913007882399F180912E079091E0
:1023F0002F07840F951F90932F0780932E078091AE
:10240000310790913207840F951F90933207809384
:1024100031072091030830910408241B350B3093B9
:1024200004082093030861E070E00E94BE058091DB
:102430002E0790912F0761E070E00E941C068091AA
:1024400003089091040862E070E00E94600532C0C9
:102450008091370790913807840F951F9093380724
:10246000809337078091390790913A07840F951F21
:1024700090933A07809339078091350790913607FA
:10248000841B950B909336078093350761E070E0CD
:102490000E9460058091390790913A0762E070E0F0
:1024A0000E94BE05809137079091380762E070E086
:1024B0000E941C0682E090E0E80EF91E98E0E91602
:1024C000F10409F05BCF0E94530EDF91CF911F9171
:1024D0000F91FF90EF90DF90CF90BF90AF909F90C3
:1024E0008F900895DE01AA0FBB1FCE0123E0880F55
:1024F000991F2A95E1F7A80FB91FA00FB11FFD0181
:10250000E853F94F8081882309F452CFD3CF0F933A
:102510001F93CF93DF93182F092FEB018091300782
:10252000882309F1812FFC0163E0EE0FFF1F6A95FC
:10253000E1F7880F991FE80FF91FEC0FFD1FEE0F51
:10254000FF1FE55CF84F81E090E0918380838091EC
:10255000350790913607019690933607809335079B
:1025600061E070E020C0812FFC0133E0EE0FFF1F1F
:102570003A95E1F7880F991FE80FF91FE60FF71F4B
:10258000EE0FFF1FE55CF84F82E090E091838083BF
:102590008091030890910408019690930408809319
:1025A000030862E070E00E946005812F902FBE0159
:1025B0000E94881180913007882319F44FE150E080
:1025C00002C040E058EF812F902FBE012AE030E09A
:1025D0000E94DF0B8091300791E0892780933007BC
:1025E000DF91CF911F910F910895CF92DF92EF92DB
:1025F000FF921F93CF93DF937C016B018AE0E81673
:10260000F10428F477FD03C06A30710524F087E8EF
:1026100095E00E94F004E701CC0FDD1FC70153E0F5
:10262000880F991F5A95E1F7C80FD91FCC0DDD1DF2
:10263000CC0FDD1FC55CD84F88819981892B09F0AB
:1026400049C0C701B6010E941A0E882309F44EC082
:1026500080913007882319F081E090E002C082E089
:1026600090E099838883C701B6010E94F20E882307
:1026700099F0F70133E0EE0FFF1F3A95E1F7EE0C0A
:10268000FF1CEE0DFF1DEC0DFD1DEE0FFF1FE55CA9
:10269000F84F118210822AC00E94530EC701B60162
:1026A0000E947D0E182F0E94530ED701AA0FBB1F48
:1026B000C701F3E0880F991FFA95E1F7112361F440
:1026C000A80FB91FAC0DBD1DAA0FBB1FA55CB84F4D
:1026D0001D921C9280E00BC0A80FB91FAC0DBD1D50
:1026E000AA0FBB1FA55CB84F1D921C9281E0DF9121
:1026F000CF911F91FF90EF90DF90CF900895CF92F0
:10270000DF92EF92FF920F931F93CF93DF930E947C
:1027100001040E94910A0E947A06809131079091EB
:10272000320761E070E00E94BE0580913907909108
:102730003A0762E070E00E94BE05809135079091F3
:10274000360761E070E00E94600580913507909146
:10275000360762E070E00E94600580913707909133
:10276000380762E070E00E941C0680912E0790916D
:102770002F0761E070E00E941C06EE24FF2474E144
:10278000C72ED12C25C088819981019741F4C701BA
:10279000B80140E058EF2AE030E00E94DF0B88816A
:1027A0009981029741F4C701B8014FE150E02AE056
:1027B00030E00E94DF0B0F5F1F4F22960A30110599
:1027C00011F70894E11CF11C8AE0E816F10461F0AD
:1027D000EC9CE001ED9CD00DFC9CD00D1124C55C5F
:1027E000D84F00E010E0CFCF6091330770913407ED
:1027F00080912C0790912D0740EE57E027E030E0C4
:102800000E94DF0BDF91CF911F910F91FF90EF900E
:10281000DF90CF90089520912E0730912F0780915F
:102820003707909138078217930724F481E090E0EE
:102830000E94FD0820912E0730912F0780913707C5
:10284000909138078217930724F082E090E00E946D
:10285000FD080895AF92BF92CF92DF92EF92FF9260
:102860000F931F93CF93DF930E9484100E94CA0D91
:102870000E947F130E9489070E9469010197E1F776
:102880000E947F1300E010E0CC24DD24FF24C0E090
:10289000D0E0E0E1AE2EE7E2BE2EEE24E39401C0EC
:1028A000FF240E9469019C01C5010197F1F7FF20F7
:1028B00009F48FC0C130D10519F50130110501F5BA
:1028C00021303105E9F4809130078E25809330075F
:1028D0000894C11CD11C82E0C816D10471F40E9476
:1028E0000B140E9469010197E1F30E9469010197AD
:1028F000E1F70E94CA0D0E947F1300E010E032C091
:102900002630310509F45AC02130310571F5609146
:1029100033077091340780912C0790912D070E9406
:10292000F512882309F45CC0609133077091340775
:1029300080912C0790912D070E9487126091330798
:102940007091340780912C0790912D0740EE57E04D
:1029500027E030E00E94DF0B0E948E1000E010E0C4
:10296000CC24DD24C0E0D0E09BCF2230310551F4EF
:1029700084E690E060E070E00E94EF0FE80102E082
:1029800010E08ECF2330310551F480E090E061E01B
:1029900070E00E94EF0FE80103E010E081CF2430E7
:1029A000310551F481E090E060E070E00E94EF0FAB
:1029B000E80104E010E074CFE80189012530310519
:1029C00039F480E090E064E670E00E94EF0F68CF99
:1029D000FF242630310509F064CFFF24F39461CF42
:1029E000E80101E010E05CCFEF92FF920F931F939C
:1029F0007B018C0120E030E040E05FE40E9476172C
:102A000088238CF0C801B70120E030E040E05FE4AB
:102A10000E946C160E9404189B01AC0120503040AB
:102A20004040504806C0C801B7010E9404189B01ED
:102A3000AC01B901CA011F910F91FF90EF90089569
:102A4000A0E0B0E0E6E2F5E10C94611ADC012B01B4
:102A5000FA019C91923008F439C1EB0188818230EF
:102A600008F433C1943069F4843009F02FC1119611
:102A70009C9111978981981709F428C1AEEAB5E0B5
:102A800025C1843009F421C18230A9F4923009F0C3
:102A90001DC19A01AD0188E0EA010990AE01E9018A
:102AA00009929E018150C1F7E201898111969C91A2
:102AB0008923818308C1923009F407C112962D90B1
:102AC0003C901397EB018A819B811496AD90BD9049
:102AD000CD90DC901797EC80FD800E811F819101D5
:102AE000281B390BB90137FF04C066277727621B03
:102AF000730B603271050CF061C0121613066CF591
:102B000037014801062E04C0969487947794679401
:102B10000A94D2F721E030E040E050E004C0220FF8
:102B2000331F441F551F6A95D2F721503040404053
:102B300050402E213F2140235123211531054105CD
:102B4000510521F021E030E040E050E079018A01B8
:102B5000E628F728082919293CC0232BD1F1260E95
:102B6000371E35014601062E04C09694879477944B
:102B700067940A94D2F721E030E040E050E004C0CE
:102B8000220F331F441F551F6A95D2F72150304042
:102B9000404050402A213B214C215D212115310527
:102BA0004105510521F021E030E040E050E05901BD
:102BB0006A01A628B728C828D9280BC08215930512
:102BC0002CF01C01AA24BB24650103C0EE24FF24C1
:102BD000870111969C91D20111968C91981709F456
:102BE00045C0992339F0A80197012A193B094C09DE
:102BF0005D0906C0A60195012E193F09400B510B36
:102C000057FD08C011823382228224833583468394
:102C100057831DC081E081833382228288279927D0
:102C2000DC01821B930BA40BB50B84839583A683D5
:102C3000B7830DC0220F331F441F551F24833583D4
:102C40004683578382819381019793838283248172
:102C5000358146815781DA01C9010197A109B1097E
:102C60008F5F9F4FAF4FBF4328F30BC091833382D9
:102C70002282EA0CFB1C0C1D1D1DE482F5820683DA
:102C8000178383E08083248135814681578157FFF4
:102C90001AC0C901AA2797FDA095BA2F817090701C
:102CA000A070B0705695479537952795822B932B3A
:102CB000A42BB52B84839583A683B78382819381CC
:102CC000019693838283DF0101C0D201CD01CDB78C
:102CD000DEB7E2E10C947D1AA0E2B0E0E2E7F6E1B3
:102CE0000C946D1A69837A838B839C832D833E8336
:102CF0004F835887E9E0EE2EF12CEC0EFD1ECE013D
:102D00000196B7010E947C198E010F5E1F4FCE0104
:102D10000596B8010E947C198A8991E089278A8BDF
:102D2000C701B801AE01475E5F4F0E9420150E94A7
:102D3000A718A096E6E00C94891AA0E2B0E0E3EAB6
:102D4000F6E10C946D1A69837A838B839C832D83BF
:102D50003E834F835887F9E0EF2EF12CEC0EFD1ED9
:102D6000CE010196B7010E947C198E010F5E1F4FA4
:102D7000CE010596B8010E947C19C701B801AE01C9
:102D8000475E5F4F0E9420150E94A718A096E6E0BC
:102D90000C94891AA8E1B0E0E0EDF6E10C94691A10
:102DA00069837A838B839C832D833E834F835887EB
:102DB000B9E0EB2EF12CEC0EFD1ECE010196B70111
:102DC0000E947C198E010F5E1F4FCE010596B8013F
:102DD0000E947C192985223008F47EC0398932305E
:102DE00010F4B8017CC08A859A8989278A872430A3
:102DF00011F0223031F4231709F06EC06EEA75E04D
:102E00006EC0343039F41D861E861F86188A1C86D3
:102E10001B8604C0323021F484E08987B7015FC08B
:102E20002B853C858B899C89281B390B3C872B87FC
:102E3000ED84FE840F851889AD88BE88CF88D88C34
:102E4000EA14FB040C051D0540F4EE0CFF1C001FEA
:102E5000111F215030403C872B8720E030E040E0BC
:102E600050E080E090E0A0E0B0E460E070E0EA14C0
:102E7000FB040C051D0540F0282B392B4A2B5B2B3E
:102E8000EA18FB080C091D09B695A7959795879533
:102E9000EE0CFF1C001F111F6F5F7F4F6F3171051C
:102EA00031F7DA01C9018F779070A070B07080346B
:102EB0009105A105B10561F427FD0AC0E114F104F3
:102EC0000105110529F0205C3F4F4F4F5F4F2078DF
:102ED0002D873E874F87588BBE01675F7F4FCB01A1
:102EE0000E94A7186896EAE00C94851AA8E1B0E061
:102EF000ECE7F7E10C946D1A69837A838B839C83EA
:102F00002D833E834F83588789E0E82EF12CEC0E09
:102F1000FD1ECE010196B7010E947C198E010F5E45
:102F20001F4FCE010596B8010E947C198985823019
:102F300040F08989823028F0C701B8010E94F41955
:102F400001C08FEF6896E6E00C94891AA8E0B0E023
:102F5000ECEAF7E10C946A1A9B01AC0183E08983E7
:102F6000DA01C9018827B7FD83959927AA27BB27CE
:102F7000B82E211531054105510519F482E08983E8
:102F80003AC08823A9F0203080E0380780E0480765
:102F900080E8580729F460E070E080E09FEC30C0E2
:102FA000EE24FF248701E21AF30A040B150B02C07A
:102FB00079018A018EE1C82ED12CDC82CB82ED8290
:102FC000FE820F831887C801B7010E945818019725
:102FD0001816190684F4082E04C0EE0CFF1C001FFE
:102FE000111F0A94D2F7ED82FE820F831887C81A48
:102FF000D90ADC82CB82BA82CE0101960E94A71840
:103000002896E9E00C94861AACE0B0E0EAE0F8E13A
:103010000C94711A69837A838B839C83CE01019609
:10302000BE016B5F7F4F0E947C198D81823061F100
:10303000823050F1843021F48E81882351F12EC0EA
:103040002F81388537FD20C06E812F3131051CF06E
:103050006623F9F023C08EE190E0821B930B298553
:103060003A854B855C8504C05695479537952795DD
:103070008A95D2F76623B1F0509540953095219509
:103080003F4F4F4F5F4F0EC020E030E040E050E038
:1030900009C02FEF3FEF4FEF5FE704C020E030E0C3
:1030A00040E050E8B901CA012C96E2E00C948D1A78
:1030B000EF92FF920F931F937B018C0180E0E81643
:1030C00080E0F80681E0080780E0180788F48FEFB9
:1030D000E816F1040105110531F028F088E090E0D0
:1030E000A0E0B0E017C080E090E0A0E0B0E012C047
:1030F00080E0E81680E0F80680E0080781E0180725
:1031000028F088E190E0A0E0B0E004C080E190E029
:10311000A0E0B0E020E230E040E050E0281B390BB6
:103120004A0B5B0B04C016950795F794E7948A95B4
:10313000D2F7F701EA54FA4F8081281B310941097F
:103140005109C9011F910F91FF90EF900895DF92EF
:10315000EF92FF920F931F93FC01E480F5800681AC
:103160001781D1808081823048F480E090E0A0E136
:10317000B0E0E82AF92A0A2B1B2BA5C0843009F4F9
:103180009FC0823021F4EE24FF24870105C0E114A2
:10319000F1040105110519F4E0E0F0E096C0628148
:1031A00073819FEF623879070CF05BC022E83FEF34
:1031B000261B370B2A3131052CF020E030E040E0AF
:1031C00050E02AC0B801A701022E04C07695679589
:1031D000579547950A94D2F781E090E0A0E0B0E0DF
:1031E00004C0880F991FAA1FBB1F2A95D2F7019709
:1031F000A109B1098E219F21A023B1230097A10528
:10320000B10521F081E090E0A0E0B0E09A01AB01CF
:10321000282B392B4A2B5B2BDA01C9018F77907051
:10322000A070B07080349105A105B10539F427FF75
:1032300009C0205C3F4F4F4F5F4F04C0215C3F4FA0
:103240004F4F5F4FE0E0F0E02030A0E03A07A0E011
:103250004A07A0E45A0710F0E1E0F0E079018A01A2
:1032600027C06038710564F5FB01E158FF4FD801B4
:10327000C7018F779070A070B07080349105A10560
:10328000B10539F4E7FE0DC080E490E0A0E0B0E0C5
:1032900004C08FE390E0A0E0B0E0E80EF91E0A1F42
:1032A0001B1F17FF05C016950795F794E7943196F5
:1032B00087E016950795F794E7948A95D1F705C0AE
:1032C000EE24FF248701EFEFF0E06E2F679566276D
:1032D0006795902F9F77D794DD24D7948E2F86956E
:1032E000492F462B582F5D29B701CA011F910F9115
:1032F000FF90EF90DF900895FC01DB014081518148
:103300002281622F6F7770E0221F2227221F938174
:10331000892F880F822B282F30E0991F9927991F1A
:1033200011969C93119721153105A9F54115510569
:103330006105710511F482E037C082E89FEF1396B2
:103340009C938E9312979A01AB0167E0220F331F73
:10335000441F551F6A95D1F783E08C930DC0220F4F
:10336000331F441F551F12968D919C9113970197FF
:1033700013969C938E931297203080E0380780E05C
:10338000480780E4580758F314962D933D934D93C6
:103390005C93179708952F3F310579F44115510536
:1033A0006105710519F484E08C93089564FF03C0EE
:1033B00081E08C9312C01C9210C02F57304013969E
:1033C0003C932E93129783E08C9387E0440F551F14
:1033D000661F771F8A95D1F7706414964D935D939D
:1033E0006D937C93179708951F93DC01FB019C91CB
:1033F000923008F447C08081823008F443C0943092
:1034000051F411961C91843099F58181682F70E0F8
:10341000611B71093FC0843021F0923031F4823059
:10342000B9F18181882389F12DC011961C911197E2
:103430008230F1F081811817D9F412962D913C91C8
:103440001397828193818217930794F02817390785
:10345000BCF014968D919D910D90BC91A02D24816E
:10346000358146815781281739074A075B0718F4C9
:10347000112341F00AC082179307A407B50740F44F
:10348000112319F061E070E005C06FEF7FEF02C01B
:1034900060E070E0CB011F910895AA1BBB1B51E1B6
:1034A00007C0AA1FBB1FA617B70710F0A61BB70BB4
:1034B000881F991F5A95A9F780959095BC01CD0159
:1034C00008952F923F924F925F926F927F928F92C8
:1034D0009F92AF92BF92CF92DF92EF92FF920F93A3
:1034E0001F93CF93DF93CDB7DEB7CA1BDB0B0FB6AD
:1034F000F894DEBF0FBECDBF09942A88398848886A
:103500005F846E847D848C849B84AA84B984C884FF
:10351000DF80EE80FD800C811B81AA81B981CE0FF6
:10352000D11D0FB6F894DEBF0FBECDBFED010895DB
:04353000F894FFCF3D
:103534000A004572726F72207768696C652064694D
:1035440073706C6179696E67206E756D6265720067
:10355400303030300053746F6E65733A20000000D1
:103564000054616B656E3A200000000053636F7273
:10357400653A2000000000506C6179657220313A90
:103584000020202020202020202020202020202057
:10359400202C2D2D2D2D2E2E200020202C2D2D2DB8
:1035A4002D2E2E202020202020202F2020202F20D0
:1035B4005C200020202C2D2D2D2D2E2E202020208F
:1035C40020202F2020202F2020205C202000202FAE
:1035D4002020202F2020205C202020202F2020208D
:1035E4002E20202020203A2020007C2020203A2059
:1035F400202020203A20202E2020202F2020203B75
:103604002E20205C2020002E2020207C20203B2EF9
:10361400202F202E2020203B2020202F202060201F
:103624003B20002E2020203B202F2D2D6020203BEE
:103634002020207C20203B205C203B207C20003B61
:103644002020207C203B20205F5F207C2020203A0B
:1036540020207C203B207C202720007C2020203A36
:10366400207C2E27202E272E2020207C202027205F
:10367400272027203A20002E2020207C20275F2E80
:1036840027203A272020203B20205C3B202F20208D
:103694007C2000272020203B203A205C20207C2016
:1036A4005C2020205C2020272C20202F2000272095
:1036B40020207C20272F20202E2720203B20202064
:1036C4003A202020202F202020007C2020203A2077
:1036D4002020202F20202020205C2020205C202E51
:1036E400272020202000205C2020205C202E272062
:1036F400202020202020602D2D2D602000202060FF
:103704002D2D2D602020202020202020202020204E
:1037140020202020202020005072657373206365D0
:103724006E746572206B657920746F20636F6E749C
:10373400696E756521005448452057494E4E4552DF
:103744002049533A202020202020202020202020FF
:103754002020202020202020202020200020205F46
:103764005F5F5F5F20205F2020202020202020201A
:103774002020202020202020202020202020202045
:103784005F5F2000207C20205F5F205C7C207C2009
:103794002020202020202020202020202020202025
:1037A4002020202020202F5F207C00207C207C5F94
:1037B4005F29207C207C205F5F205F205F20202009
:1037C4005F20205F5F5F205F205F5F2020207C20E0
:1037D4007C00207C20205F5F5F2F7C207C2F205F7B
:1037E40060207C207C207C207C2F205F205C202794
:1037F4005F5F7C20207C207C00207C207C2020209B
:10380400207C207C20285F7C207C207C5F7C207CAA
:1038140020205F5F2F207C20202020207C207C0023
:10382400207C5F7C202020207C5F7C5C5F5F2C5FA1
:103834007C5C5F5F2C207C5C5F5F5F7C5F7C202016
:103844002020207C5F7C002020202020202020209D
:103854002020202020202020205F5F2F207C20207B
:103864002020202020202020202020202000202074
:103874002020202020202020202020202020207CE8
:103884005F5F5F2F20202020202020202020202068
:10389400202020200050726573732063656E746568
:1038A40072206B657920746F207265737461727411
:1038B400207468652067616D6521200020205F5FAA
:1038C4005F5F5F20205F20202020202020202020F8
:1038D40020202020202020202020202020202020E4
:1038E4005F5F5F202000207C20205F5F205C7C20C5
:1038F4007C20202020202020202020202020202068
:1039040020202020202020207C5F5F205C200020BD
:103914007C207C5F5F29207C207C205F5F205F20EF
:103924005F2020205F20205F5F5F205F205F5F209B
:10393400202020202029207C00207C20205F5F5F25
:103944002F7C207C2F205F60207C207C207C207CAE
:103954002F205F205C20275F5F7C202020202F20E9
:103964002F2000207C207C202020207C207C2028EC
:103974005F7C207C207C5F7C207C20205F5F2F206C
:103984007C2020202020202F202F5F2000207C5FFF
:103994007C202020207C5F7C5C5F5F2C5F7C5C5FF4
:1039A4005F2C207C5C5F5F5F7C5F7C20202020207C
:1039B4007C5F5F5F5F7C004572726F722C20696E62
:1039C40076616C6964207820616E6420790000005F
:1039D40001000000FFFF01000000FFFF00000000E5
:1039E40000000000000000010202030303030404BA
:1039F4000404040404040505050505050505050579
:103A04000505050505050606060606060606060658
:103A14000606060606060606060606060606060642
:103A24000606060606060707070707070707070728
:103A34000707070707070707070707070707070712
:103A44000707070707070707070707070707070702
:103A540007070707070707070707070707070707F2
:103A640007070707070708080808080808080808D8
:103A740008080808080808080808080808080808C2
:103A840008080808080808080808080808080808B2
:103A940008080808080808080808080808080808A2
:103AA4000808080808080808080808080808080892
:103AB4000808080808080808080808080808080882
:103AC4000808080808080808080808080808080872
:103AD4000808080808080808080808080808080862
:063AE400080808080808AC
:00000001FF
